:1000000012C017C016C015C014C013C012C011C052
:1000100010C00FC00EC00DC00CC00BC00AC009C07C
:1000200008C007C006C011241FBECFEDCDBF02D04F
:1000300060C0E6CF8AB383608ABB8FEF87BB81BB8A
:100040009BB39C7F9BBB82BB60E07FEF21E030E0F5
:100050002DC072BBC901062E01C0880F0A94EAF7B1
:1000600088BB4FEF54E38CE0415050408040E1F7B3
:1000700000C00000643010F06F5F18C080E090E0B6
:10008000A901082E01C0440F0A94EAF7409542BB2B
:10009000EFEF44E35CE0E15040405040E1F700C046
:1000A000000001968730910559F7E6CF683088F255
:1000B00018BA8BB38D6F8BBB8FEF94E3ECE081505C
:1000C0009040E040E1F700C000008BB38C7F8BBB19
:1000D0008BB38E6F8BBB4FEF54E38CE0415050409D
:1000E0008040E1F700C000008BB38C7F8BBB60E0E9
:0600F000B0CFF894FFCF31
:00000001FF
